:100000000C9434000C9451000C9451000C94510049
:100010000C9451000C9451000C9451000C9451001C
:100020000C9451000C9451000C9451000C9451000C
:100030000C9451000C9451000C9451000C945100FC
:100040000C9451000C9451000C9451000C945100EC
:100050000C9451000C9451000C9451000C945100DC
:100060000C9439060C94510011241FBECFEFD8E038
:10007000DEBFCDBF11E0A0E0B1E0ECE7F3E102C0EC
:1000800005900D92A033B107D9F721E0A0E3B1E0CC
:1000900001C01D92A73FB207E1F70E9456070C94DA
:1000A000BC090C9400006AE070E00E94D30730E0C5
:1000B00020E06217730731F430E020E082179307E5
:1000C00051F40895EFE3FCE93197F1F700C0000027
:1000D0002F5F3F4FEECFEFE9FFE03197F1F700C020
:1000E00000002F5F3F4FEACF0F93CF93C62F91E0D1
:1000F00090938801609387018093670181E090E08D
:1001000090936601809365019093640180936301ED
:1001100001E021E041E067E671E08C2F0E94B1052B
:1001200010926601109265011092640110926301B1
:1001300010928801882329F088E080933E0180E0B6
:1001400022C021E041E063E471E08C2F0E946E0543
:10015000109242011092410121E030E0882311F019
:1001600030E020E03093400120933F0181110EC028
:100170008091430121E030E030934201209341011E
:100180008093370181E0CF910F91089587E0D5CF1B
:10019000AF92BF92CF92DF92EF92FF920F931F9395
:1001A000CF93DF937C01EB018A01C22E10923E01B6
:1001B00068E3A62E61E0B62ED12C6C2D8D2D0E9409
:1001C00074008823A9F190913701F50191935F01A3
:1001D000D394F6E0DF12F1CF2091390130E0322FD5
:1001E000222790913801290F311DF7013183208397
:1001F00020913B0130E0322F222790913A01290FC4
:10020000311D3983288320913D0130E0322F222790
:1002100090913C01290F311DF80131832083288101
:100220003981243631057CF48AE080933E0180E0F8
:10023000DF91CF911F910F91FF90EF90DF90CF90C2
:10024000BF90AF90089510923E01F2CF0F93982F78
:10025000862F21E0209388016093870190936701A6
:100260004093680122E030E03093660120936501FD
:10027000309364012093630101E021E042E067E6EE
:1002800071E00E94B1051092660110926501109212
:1002900064011092630110928801882331F088E094
:1002A00080933E0180E00F91089581E0FCCF109291
:1002B0004201109241011092400110923F011092B0
:1002C0006601109265011092640110926301089515
:1002D000299A85E08A95F1F70000299808955F989A
:1002E00090E0B0E0A0E024E0B695A79597958795BB
:1002F0002A95D1F7817031F02A9A2B9A2C982D9853
:100300000C9468012A98F9CFCF92DF92EF92FF9276
:10031000CF93C82FC82ED12CF12CE12CD701C601C8
:1003200064E0B695A795979587956A95D1F7817002
:1003300009F449C02A9AD701C60155E0B695A79598
:10034000979587955A95D1F7817009F43EC02B9AFD
:10035000D701C60146E0B695A795979587954A952A
:10036000D1F78170A1F12C9AC7FF33C02D9A0E945A
:100370006801C0FF30C02A9AD701C601B695A7957B
:1003800097958795817049F12B9AD701C60122E094
:10039000B695A795979587952A95D1F78170F9F02D
:1003A0002C9A83E0F694E794D794C7948A95D1F772
:1003B0008C2D8170B1F02D9ACF91FF90EF90DF904E
:1003C000CF900C9468012A98B6CF2B98C1CF2C9867
:1003D000CBCF2D98CCCF2A98CFCF2B98D6CF2C9897
:1003E000E0CF2D98E9CFCF93229823982498259891
:1003F0005F98289A299A85E08A95F1F70000C3B1A1
:1004000029980E946801C5FDF5CF229A239A249A63
:10041000259A2898CF910895CF93C82F0E94F30171
:100420005F988C2FCF910C948401229A239A249A5E
:10043000259A579A209A219A2A982B982C982D9889
:100440005F98289829982FEF89EF90E021508040FD
:100450009040E1F700C0000080E30E946F018FE34D
:100460009CE90197F1F700C0000080E30E946F0152
:100470008FE99FE00197F1F700C0000080E30E9440
:100480006F018FE99FE00197F1F700C0000080E263
:100490000E946F0188E20E940C028CE00E940C0214
:1004A00086E00E940C0281E00C940C02CF93C82FCE
:1004B0000E94F3015F9A8C2FCF910C94840181E00C
:1004C0000C940C02803150F4623040F46295660F57
:1004D000660F607C862B80680C940C020895CF9385
:1004E000682F80E00E946202C1E180E20E94560211
:1004F000C150D9F7CF9108958F929F92AF92BF923A
:10050000CF92DF92EF92FF920F931F93CF93DF93DF
:100510000E94F30122982398249825985F98289A9E
:10052000299A65E06A95F1F7000063B183B153B190
:100530002998299A95E09A95F1F7000093B143B173
:1005400033B123B162FB662760F9C62F60E0D62F76
:1005500064E0CC0FDD1F6A95E1F783FBAA24A0F8C5
:10056000B12C75E0AA0CBB1C7A95E1F78C2F8A2977
:1005700092FB992790F9892B54FBCC24C0F8D12CFD
:10058000E6E0CC0CDD1CEA95E1F78C2943FBEE2478
:10059000E0F8F12CEE0CFF1C8E2934FB002700F94B
:1005A00010E0000F111F000F111F802B25FB882466
:1005B00080F8912CB3E0880C991CBA95E1F7882952
:1005C0002998229A239A249A259A289890E0803490
:1005D00014F0805491E0DF91CF911F910F91FF9023
:1005E000EF90DF90CF90BF90AF909F908F90089545
:1005F000EF92FF920F931F93CF93DF937C01C62F4F
:100600006830F8F40E947C02182F092F28E0C29F5E
:10061000C001112480640E940C02E701C701089602
:100620007C0189910E945602CE15DF05D1F7602F1B
:10063000812FDF91CF911F910F91FF90EF900C943C
:100640006202DF91CF911F910F91FF90EF9008957B
:10065000EF92FF920F931F93CF93DF937C01C62FEE
:10066000683018F50E947C02182F092F28E0C29FDD
:10067000C001112480640E940C02E701C7010896A2
:100680007C01E9910E2E000CFF0B84910E94560212
:10069000CE15DF05B1F7602F812FDF91CF911F912C
:1006A0000F91FF90EF900C946202DF91CF911F9118
:1006B0000F91FF90EF9008950E947C0208950E9490
:1006C0007C02892F08950C945602CF93DF93EC019E
:1006D0008991811103C0DF91CF9108950E94560244
:1006E000F7CFCF93DF93EC01FE0184912196811126
:1006F00003C0DF91CF9108950E945602F5CFCF93AA
:10070000DF93CDB7DEB72C970FB6F894DEBF0FBEE0
:10071000CDBF462F572FBC0141155105610571050D
:1007200059F480E32C960FB6F894DEBF0FBECDBF10
:10073000DF91CF910C94560241155105610530E8C7
:10074000730709F4C1C0FE0133968AE0DF011D92F0
:100750008A95E9F780E3898320E077FF08C07095E8
:100760006095509541955F4F6F4F7F4F21E080E33B
:100770004130BAEC5B07BAE96B07BBE37B0794F047
:10078000DB01CA019A5CAA49BB4381303AEC93076A
:100790003AE9A3073BE3B3070CF49FC05459654300
:1007A000774782E38A8380E3982F8F5F4115A1EE1C
:1007B0005A07A5EF6A07A5E07A070CF092C09B8361
:1007C00080E3982F8F5F4038B6E95B07B8E96B0785
:1007D00071050CF08AC09C8380E3982F8F5F4034B2
:1007E00032E453073FE0630771050CF083C09D833B
:1007F00080E3982F8F5F403AA6E85A07A1E06A0786
:1008000071050CF07CC09E8380E3982F8F5F403190
:10081000B7E25B07610571050CF076C09F8380E34A
:10082000982F8F5F483E33E05307610571050CF048
:1008300070C0988780E3982F8F5F4436510561051B
:1008400071050CF06BC0998780E3982F8F5F4A3059
:100850005105610571050CF066C09A87405D4B87B4
:1008600080E0982F8F5FE1E0F0E0EC0FFD1FE80FD4
:10087000F11D30813033A9F3222349F0E1E0F0E0AB
:10088000EC0FFD1FE90FF11D8DE28083892F3AE007
:10089000381B20E090E0E1E0F0E0EC0FFD1FE20FFC
:1008A000F11DDF01A80FB91F4C9140832F5F321754
:1008B00090F7E1E0F0E0EC0FFD1FE20FF11D108278
:1008C000CE0101960E9465032C960FB6F894DEBF08
:1008D0000FBECDBFDF91CF910895AC01BD0181E383
:1008E00061CF515E654F75405FCF405856496849AA
:1008F000710967CF405452446F4071096ECF405A1E
:1009000056486140710975CF4051574261097109DC
:100910007CCF485E53406109710982CF445651092A
:100920006109710988CF4A505109610971098DCF58
:10093000CF92DF92EF92FF920F931F93CF93DF93AB
:1009400000D000D000D0CDB7DEB76B017C01C982EA
:10095000DA82EB82FC8289014E835D8320E030E005
:10096000A9010E945408811117C080E30E94560219
:100970008EE20E94560280E326960FB6F894DEBF00
:100980000FBECDBFDF91CF911F910F91FF90EF90E0
:10099000DF90CF900C94560220E030E040E05FEC16
:1009A00069817A818B819C810E94410987FD6BC09E
:1009B00020E030E040E05FE469817A818B819C81B6
:1009C0000E94540887FF5FC020E030E0A9016981E0
:1009D0007A818B819C810E94540887FF0CC0898199
:1009E0009A81AB81BC81B05889839A83AB83BC83E5
:1009F0008DE20E94560269817A818B819C810E94DE
:100A000059080E947F038EE20E94560269817A8112
:100A10008B819C810E9460080E948F089B01AC0121
:100A200069817A818B819C810E94E7076B017C013F
:100A3000B8018E819D810E948F089B01AC01C98203
:100A4000DA82EB82FC8269817A818B819C810E94AF
:100A5000460969837A838B839C8369817A818B8140
:100A60009C810E94590826960FB6F894DEBF0FBEEF
:100A7000CDBFDF91CF911F910F91FF90EF90DF904D
:100A8000CF900C947F0326960FB6F894DEBF0FBE6E
:100A9000CDBFDF91CF911F910F91FF90EF90DF902D
:100AA000CF9008951092F60181E08093F4011092A6
:100AB000F301449A459AE9EBF0E080818E7F8083D0
:100AC00080818D7F808388E48093B80085E4809363
:100AD000BC000895880F8093BA000895CF93382FF3
:100AE000CB01C42F4132D8F54091F6014111FCCF22
:100AF00041E04093F6012093F4012FEF2093890108
:100B00001092CE012C0F2093CD014093F50120913E
:100B1000F501330F322B3093F5012091F301213091
:100B2000E1F41092F3012091F5012093BB0025EC34
:100B30002093BC002091F6012130E1F32091CE01F9
:100B40002C1710F4C091CE014C2F50E06FEC71E0E7
:100B50000E94B3098C2FCF91089525EEE9CFC0E014
:100B6000F9CF0F93982F81E0413208F03FC0809178
:100B7000F6018111FCCF32E03093F6010093F401CD
:100B80003FEF309389011092CE014093CD01AFEC3D
:100B9000B1E0FB013E2F361B341750F11092F501E6
:100BA0003091F501990F932B9093F5019091F301FA
:100BB000913009F51092F3019091F5019093BB00EB
:100BC00095EC9093BC00222321F09091F601923095
:100BD000D1F3909189019F3F49F080918901803242
:100BE00061F080918901803351F084E00F91089584
:100BF00031913D93CFCF95EEE4CF82E0F7CF83E004
:100C0000F5CF792F613278F49091F601943069F440
:100C10006093AB01462F50E0682F8DEA91E00E946F
:100C2000B30980E0089581E0089582E008959093EB
:100C3000F0018093EF0108959093F2018093F10108
:100C40000895882321F085EC8093BC00089585E801
:100C5000FBCF85ED8093BC008091BC0084FDFCCF70
:100C60001092F601089585EC8093BC001092F60175
:100C700008951F920F920FB60F9211242F933F9356
:100C80004F935F936F937F938F939F93AF93BF9394
:100C9000EF93FF939091B900892F887F803509F4F5
:100CA000C3C008F044C0803309F4B9C098F5883156
:100CB00001F1D0F4883009F4AAC0803109F4A7C04A
:100CC000882309F4F0C0FF91EF91BF91AF919F91FC
:100CD0008F917F916F915F914F913F912F910F90E5
:100CE0000FBE0F901F901895803209F498C088327B
:100CF00051F79091CE018091CD01981790F5E09138
:100D0000CE0181E08E0F8093CE01F0E0E153FE4FE3
:100D100080817FC0803409F493C0883409F481C095
:100D2000883389F6809389010E943306CCCF803ABC
:100D300009F4A0C0C0F5803809F48AC058F580369F
:100D400019F1E0F4883509F0BECFE091CE0181E0E1
:100D50008E0F8093CE018091BB00F0E0E153FE4FF7
:100D600080838091F40181115CC081E08093F30164
:100D700084EA8093BC001092F601A5CF803721F061
:100D8000987E983609F09FCF83E08093F601109209
:100D90008A0141C0803909F45BC0987E983809F017
:100DA00092CF85E839C0883BD9F058F5883A19F0D8
:100DB000803B09F088CF84E08093F6011092AC016B
:100DC0001092AB01E091F101F091F201099580914F
:100DD000AB01811105C081E08093AB011092AD01A0
:100DE000E091AC0181E08E0F8093AC01F0E0E3551F
:100DF000FE4F80818093BB009091AC018091AB014C
:100E000023C0907F903C09F05ECF85ECB2CF8091FB
:100E1000F5018093BB0085EC8093BC0054CF809398
:100E200089010E9429064FCFE091CE0181E08E0F0B
:100E30008093CE018091BB00F0E0E153FE4F8083B0
:100E40009091CE018091CD01981708F0AACFE3CF01
:100E500080918A01803208F0A4CFE0918A0181E07C
:100E60008E0F80938A018091BB00F0E0E557FE4F22
:100E70008083D1CF80918A01803230F4E0918A0161
:100E8000F0E0E557FE4F10820E94290660918A012A
:100E900070E0E091EF01F091F0018BE891E00995AD
:100EA00010928A0141CF10928901BBCF00D000D0AF
:100EB000CDB7DEB70E94150260E080E00E946202BA
:100EC00084E091E00E9465030E945F03282F30E0D8
:100ED00050E040E0CA01B9010E947F0361E080E078
:100EE0000E94620283E191E00E9465030E945F0319
:100EF000282F30E050E040E029833A834B835C8325
:100F0000CA01B9010E947F0388E191E00E94650354
:100F100088EE93E00E9453000E945F0284E190E01B
:100F20000E9453000E9452050E9457012091020125
:100F300041E351E063E371E085E391E00E94C80082
:100F40008823F1F00E945F0260E080E00E9462026C
:100F500085E291E00E94650361E080E00E94620208
:100F600080913501909136019C01990F440B550BEE
:100F700029833A834B835C83CA01B9010E947F03B2
:100F8000809130018A3068F48F5F809330013FEFA9
:100F900041EE54E0315040405040E1F700C00000C5
:100FA000C5CF80E0F2CFAA1BBB1B51E107C0AA1F2F
:100FB000BB1FA617B70710F0A61BB70B881F991FFA
:100FC0005A95A9F780959095BC01CD010895505888
:100FD000BB27AA270E94FF070C9407090E94F90863
:100FE00038F00E94000920F039F49F3F19F426F4EC
:100FF0000C94F6080EF4E095E7FB0C94F008E92F4A
:101000000E94180958F3BA176207730784079507F7
:1010100020F079F4A6F50C943A090EF4E0950B2E25
:10102000BA2FA02D0B01B90190010C01CA01A0013A
:101030001124FF27591B99F0593F50F4503E68F195
:101040001A16F040A22F232F342F4427585FF3CFD6
:10105000469537952795A795F0405395C9F77EF4A7
:101060001F16BA0B620B730B840BBAF09150A1F0F0
:10107000FF0FBB1F661F771F881FC2F70EC0BA0F76
:10108000621F731F841F48F4879577956795B795FE
:10109000F7959E3F08F0B0CF9395880F08F09927F9
:1010A000EE0F9795879508950E94CC0808F481E08B
:1010B00008950E9460086894B1110C943B0908954A
:1010C0000E94200988F09F5798F0B92F9927B751AF
:1010D000B0F0E1F0660F771F881F991F1AF0BA95DC
:1010E000C9F714C0B13091F00E943A09B1E00895F7
:1010F0000C943A09672F782F8827B85F39F0B93FE9
:10110000CCF3869577956795B395D9F73EF490958E
:101110008095709561957F4F8F4F9F4F0895E8940C
:1011200009C097FB3EF490958095709561957F4F2F
:101130008F4F9F4F9923A9F0F92F96E9BB279395DD
:10114000F695879577956795B795F111F8CFFAF4ED
:10115000BB0F11F460FF1BC06F5F7F4F8F4F9F4F1E
:1011600016C0882311F096E911C0772321F09EE87C
:10117000872F762F05C0662371F096E8862F70E0E2
:1011800060E02AF09A95660F771F881FDAF7880FBC
:101190009695879597F90895990F0008550FAA0B12
:1011A000E0E8FEEF16161706E807F907C0F012167A
:1011B0001306E407F50798F0621B730B840B950B7D
:1011C00039F40A2661F0232B242B252B21F40895D2
:1011D0000A2609F4A140A6958FEF811D811D08956F
:1011E00097F99F6780E870E060E008959FEF80ECDA
:1011F000089500240A94161617061806090608957D
:1012000000240A9412161306140605060895092EE2
:101210000394000C11F4882352F0BB0F40F4BF2B51
:1012200011F460FF04C06F5F7F4F8F4F9F4F089591
:1012300057FD9058440F551F59F05F3F71F0479587
:10124000880F97FB991F61F09F3F79F0879508956C
:10125000121613061406551FF2CF4695F1DF08C08B
:10126000161617061806991FF1CF869571056105A8
:1012700008940895E894BB2766277727CB0197F950
:1012800008950E94CC0808F48FEF08950E94590930
:101290000C9407090E94F90838F00E94000920F018
:1012A000952311F00C94F0080C94F60811240C947A
:1012B0003B090E94180970F3959FC1F3950F50E008
:1012C000551F629FF001729FBB27F00DB11D639FF8
:1012D000AA27F00DB11DAA1F649F6627B00DA11D9E
:1012E000661F829F2227B00DA11D621F739FB00D44
:1012F000A11D621F839FA00D611D221F749F3327B4
:10130000A00D611D231F849F600D211D822F762F4C
:101310006A2F11249F5750409AF0F1F088234AF029
:10132000EE0FFF1FBB1F661F771F881F9150504095
:10133000A9F79E3F510580F00C94F0080C943B09EE
:101340005F3FE4F3983ED4F3869577956795B7951C
:10135000F795E7959F5FC1F7FE2B880F911D969536
:10136000879597F90895FB01DC0102C001900D9269
:0C13700041505040D8F70895F894FFCF8A
:10137C006400100045434520333837206C696E6596
:10138C003A20004C43445B005D20776F726B696EB2
:10139C00672121210044697374616E6365203D00EF
:00000001FF
